{
  "contractName": "KDSTokenSale",
  "abi": [
    {
      "inputs": [
        {
          "internalType": "contract KDSToken",
          "name": "_tokenContract",
          "type": "address"
        },
        {
          "internalType": "uint256",
          "name": "_tokenPrice",
          "type": "uint256"
        },
        {
          "internalType": "uint256",
          "name": "_totalTokensForSale",
          "type": "uint256"
        }
      ],
      "payable": false,
      "stateMutability": "nonpayable",
      "type": "constructor"
    },
    {
      "anonymous": false,
      "inputs": [
        {
          "indexed": false,
          "internalType": "address",
          "name": "_buyer",
          "type": "address"
        },
        {
          "indexed": false,
          "internalType": "uint256",
          "name": "_amount",
          "type": "uint256"
        }
      ],
      "name": "Sell",
      "type": "event"
    },
    {
      "constant": true,
      "inputs": [],
      "name": "tokenContract",
      "outputs": [
        {
          "internalType": "contract KDSToken",
          "name": "",
          "type": "address"
        }
      ],
      "payable": false,
      "stateMutability": "view",
      "type": "function"
    },
    {
      "constant": true,
      "inputs": [],
      "name": "tokenPrice",
      "outputs": [
        {
          "internalType": "uint256",
          "name": "",
          "type": "uint256"
        }
      ],
      "payable": false,
      "stateMutability": "view",
      "type": "function"
    },
    {
      "constant": true,
      "inputs": [],
      "name": "tokensSold",
      "outputs": [
        {
          "internalType": "uint256",
          "name": "",
          "type": "uint256"
        }
      ],
      "payable": false,
      "stateMutability": "view",
      "type": "function"
    },
    {
      "constant": true,
      "inputs": [],
      "name": "totalTokensForSale",
      "outputs": [
        {
          "internalType": "uint256",
          "name": "",
          "type": "uint256"
        }
      ],
      "payable": false,
      "stateMutability": "view",
      "type": "function"
    },
    {
      "constant": false,
      "inputs": [
        {
          "internalType": "uint256",
          "name": "_numberOfTokens",
          "type": "uint256"
        }
      ],
      "name": "buyTokens",
      "outputs": [],
      "payable": true,
      "stateMutability": "payable",
      "type": "function"
    },
    {
      "constant": false,
      "inputs": [],
      "name": "endSale",
      "outputs": [],
      "payable": false,
      "stateMutability": "nonpayable",
      "type": "function"
    }
  ],
  "bytecode": "0x608060405234801561001057600080fd5b5060405161084e38038061084e8339818101604052606081101561003357600080fd5b81019080805190602001909291908051906020019092919080519060200190929190505050336000806101000a81548173ffffffffffffffffffffffffffffffffffffffff021916908373ffffffffffffffffffffffffffffffffffffffff16021790555082600160006101000a81548173ffffffffffffffffffffffffffffffffffffffff021916908373ffffffffffffffffffffffffffffffffffffffff1602179055508160028190555080600481905550505050610755806100f96000396000f3fe6080604052600436106100555760003560e01c80633610724e1461005a578063380d831b14610088578063518ab2a81461009f57806355a373d6146100ca57806360219c7b146101215780637ff9b5961461014c575b600080fd5b6100866004803603602081101561007057600080fd5b8101908080359060200190929190505050610177565b005b34801561009457600080fd5b5061009d6103da565b005b3480156100ab57600080fd5b506100b46106bc565b6040518082815260200191505060405180910390f35b3480156100d657600080fd5b506100df6106c2565b604051808273ffffffffffffffffffffffffffffffffffffffff1673ffffffffffffffffffffffffffffffffffffffff16815260200191505060405180910390f35b34801561012d57600080fd5b506101366106e8565b6040518082815260200191505060405180910390f35b34801561015857600080fd5b506101616106ee565b6040518082815260200191505060405180910390f35b610183816002546106f4565b341461018e57600080fd5b80600160009054906101000a900473ffffffffffffffffffffffffffffffffffffffff1673ffffffffffffffffffffffffffffffffffffffff166370a08231336040518263ffffffff1660e01b8152600401808273ffffffffffffffffffffffffffffffffffffffff1673ffffffffffffffffffffffffffffffffffffffff16815260200191505060206040518083038186803b15801561022e57600080fd5b505afa158015610242573d6000803e3d6000fd5b505050506040513d602081101561025857600080fd5b8101908080519060200190929190505050101561027457600080fd5b600160009054906101000a900473ffffffffffffffffffffffffffffffffffffffff1673ffffffffffffffffffffffffffffffffffffffff1663a9059cbb33836040518363ffffffff1660e01b8152600401808373ffffffffffffffffffffffffffffffffffffffff1673ffffffffffffffffffffffffffffffffffffffff16815260200182815260200192505050602060405180830381600087803b15801561031d57600080fd5b505af1158015610331573d6000803e3d6000fd5b505050506040513d602081101561034757600080fd5b810190808051906020019092919050505061036157600080fd5b80600354016003819055507f5e5e995ce3133561afceaa51a9a154d5db228cd7525d34df5185582c18d3df093382604051808373ffffffffffffffffffffffffffffffffffffffff1673ffffffffffffffffffffffffffffffffffffffff1681526020018281526020019250505060405180910390a150565b6000809054906101000a900473ffffffffffffffffffffffffffffffffffffffff1673ffffffffffffffffffffffffffffffffffffffff163373ffffffffffffffffffffffffffffffffffffffff161461043357600080fd5b600160009054906101000a900473ffffffffffffffffffffffffffffffffffffffff1673ffffffffffffffffffffffffffffffffffffffff1663a9059cbb6000809054906101000a900473ffffffffffffffffffffffffffffffffffffffff16600160009054906101000a900473ffffffffffffffffffffffffffffffffffffffff1673ffffffffffffffffffffffffffffffffffffffff166370a08231306040518263ffffffff1660e01b8152600401808273ffffffffffffffffffffffffffffffffffffffff1673ffffffffffffffffffffffffffffffffffffffff16815260200191505060206040518083038186803b15801561053257600080fd5b505afa158015610546573d6000803e3d6000fd5b505050506040513d602081101561055c57600080fd5b81019080805190602001909291905050506040518363ffffffff1660e01b8152600401808373ffffffffffffffffffffffffffffffffffffffff1673ffffffffffffffffffffffffffffffffffffffff16815260200182815260200192505050602060405180830381600087803b1580156105d657600080fd5b505af11580156105ea573d6000803e3d6000fd5b505050506040513d602081101561060057600080fd5b810190808051906020019092919050505061061a57600080fd5b6000809054906101000a900473ffffffffffffffffffffffffffffffffffffffff1673ffffffffffffffffffffffffffffffffffffffff166108fc479081150290604051600060405180830381858888f19350505050158015610681573d6000803e3d6000fd5b506000809054906101000a900473ffffffffffffffffffffffffffffffffffffffff1673ffffffffffffffffffffffffffffffffffffffff16ff5b60035481565b600160009054906101000a900473ffffffffffffffffffffffffffffffffffffffff1681565b60045481565b60025481565b600080821480610711575082828385029250828161070e57fe5b04145b61071a57600080fd5b9291505056fea265627a7a7231582090ba2490da730a87858a1dd7fea151079114c176f1f48398fcbe31d0032e018064736f6c63430005100032",
  "source": "pragma solidity >=0.4.21 <0.6.0;\r\n\r\nimport \"./KDSToken.sol\";\r\n\r\ncontract KDSTokenSale {\r\n  address payable admin;\r\n  KDSToken public tokenContract;\r\n  uint256 public tokenPrice;\r\n  uint256 public tokensSold;\r\n  uint256 public totalTokensForSale;\r\n\r\n  modifier onlyAdmin() {\r\n    require(msg.sender == admin);\r\n    _;\r\n  }\r\n\r\n  event Sell(address _buyer, uint256 _amount);\r\n\r\n  constructor(KDSToken _tokenContract, uint256 _tokenPrice, uint256 _totalTokensForSale) public {\r\n    admin = msg.sender;\r\n    tokenContract = _tokenContract;\r\n    tokenPrice = _tokenPrice;\r\n    totalTokensForSale = _totalTokensForSale;\r\n  }\r\n\r\n  // multiply--- internal means internal to the contract  and pure implies it does not deal with blockchain\r\n  function multiply(uint x, uint y) internal pure returns (uint z) {\r\n    require(y==0 || (z = x * y) / y == x);\r\n    // takes from DSMath library available on github\r\n  }\r\n\r\n  // Buy Tokens\r\n  function buyTokens(uint256 _numberOfTokens) public payable{\r\n    // Require that value is equal to tokens\r\n    require(msg.value == multiply(_numberOfTokens, tokenPrice));\r\n    // Require that the contract has enough tokens\r\n    require(tokenContract.balanceOf(msg.sender) >= _numberOfTokens);\r\n    // buying functionality\r\n    require(tokenContract.transfer(msg.sender, _numberOfTokens));\r\n    // Keep track of tokensSold\r\n    tokensSold = tokensSold + _numberOfTokens;\r\n    // Triger Sell Event\r\n    emit Sell(msg.sender, _numberOfTokens);\r\n\r\n  }\r\n\r\n  function endSale() public onlyAdmin(){\r\n    require(tokenContract.transfer(admin, tokenContract.balanceOf(address(this))));\r\n\r\n    admin.transfer(address(this).balance);\r\n    selfdestruct(admin);\r\n  }\r\n}\r\n",
  "sourcePath": "D:/projects/bc/MyCryptoCurrency/contracts/KDSTokenSale.sol",
  "compiler": {
    "name": "solc",
    "version": "0.5.16+commit.9c3226ce.Emscripten.clang"
  },
  "schemaVersion": "3.3.3",
  "updatedAt": "2021-01-27T19:22:50.173Z",
  "networkType": "ethereum",
  "devdoc": {
    "methods": {}
  },
  "userdoc": {
    "methods": {}
  }
}